:100000000C9463000C948B000C948B000C948B006C
:100010000C948B000C948B000C948B000C948B0034
:100020000C948B000C948B000C948B000C9420028D
:100030000C948B000C948B000C948B000C948B0014
:100040000C9499040C948B000C94B9060C94FC0647
:100050000C948B000C948B000C948B000C948B00F4
:100060000C948B000C948B00000000070002010030
:100070000003040600000000000000000102040864
:100080001020408001020408102001020408102002
:10009000040404040404040402020202020203032E
:1000A00003030303000000002300260029000000D2
:1000B0000000250028002B0000000000240027007D
:1000C0002A001802B80711241FBECFEFD8E0DEBF08
:1000D000CDBF11E0A0E0B1E0E8E7F6E102C0059095
:1000E0000D92A834B107D9F712E0A8E4B1E001C03D
:1000F0001D92AF34B107E1F710E0C6ECD0E004C0C8
:100100002297FE010E94360BC23CD107C9F70E941C
:10011000CD050C943A0B0C94000061E082E00E9443
:100120005E0520ED37E048EE53E069E070E084E6DC
:1001300091E00E94F80220ED37E048EE53E06AE0DB
:1001400070E087E691E00E94F80240E855E260E046
:1001500070E085EA91E00C943707CF93DF93D82FB6
:10016000C62F61E08C2F0E94970585E090E00E94E9
:10017000EF0460E08C2F0E94970520E432E44FE00A
:1001800050E061E08D2F0E940E042AE330E040E051
:1001900050E00E94060BCA01B901DF91CF9108958A
:1001A0004F925F926F927F928F929F92AF92BF9287
:1001B000CF92DF92EF92FF920F931F93CF93DF9333
:1001C00000D000D0CDB7DEB70E94E30428EE33E0C4
:1001D00040E050E00E94E40A80916001909161014A
:1001E000A0916201B091630129013A01481A590AAC
:1001F0006A0A7B0A20936001309361014093620197
:100200005093630162E070E085E090E00E94AD00F1
:1002100060937201709373018093740190937501E0
:100220006B017C012AE0C21AD108E108F108A7019C
:100230009601C301B2010E94C80A4B015C01809182
:100240005C0190915D01A0915E01B0915F01880E0B
:10025000991EAA1EBB1E80925C0190925D01A09225
:100260005E01B0925F018091500190915101A09187
:100270005201B0915301281B390B4A0B5B0BCA0189
:10028000B901A30192010E94060B29833A834B8393
:100290005C83C0925001D0925101E0925201F092E1
:1002A0005301C701B6010E94CE099B01AC010E9417
:1002B00037092B013C0169817A818B819C810E94E5
:1002C000CE0920E030E0A9010E945A0A9B01AC014E
:1002D000C301B2010E9437092B013C01C501B401E1
:1002E0000E94CE0920E030E0A9010E945A0A9B0139
:1002F000AC01C301B2010E9437090E949B094B0166
:100300005C0120E5622E712C661A770A8B010C596C
:100310001F4F36E4631671041CF496E4692E712CA9
:100320000F36110514F00EE610E04AE5641671046C
:100330001CF08AE5682E712C0A35110514F40AE5C3
:1003400010E0B30184E691E00E94A903B80187E6BA
:1003500091E00E94A90364E071E085EA91E00E94C7
:100360004C082AE030E0B701A60185EA91E00E943E
:1003700024096CE071E085EA91E00E944C082AE0D3
:1003800030E049815A816B817C8185EA91E00E944D
:10039000240964E171E085EA91E00E944C084091F3
:1003A0005C0150915D0160915E0170915F012AE0F6
:1003B00030E085EA91E00E9424096CE171E085EA71
:1003C00091E00E944C084AE050E0B40185EA91E0D7
:1003D0000E940C0964E271E085EA91E00E944C08F9
:1003E0004AE050E0B30185EA91E00E940C096EE218
:1003F00071E085EA91E00E944C084AE050E0B801C3
:1004000085EA91E00F900F900F900F90DF91CF91C0
:100410001F910F91FF90EF90DF90CF90BF90AF9022
:100420009F908F907F906F905F904F900C940C09ED
:1004300084E691E00E94DC0287E691E00C94DC0205
:100440001F920F920FB60F9211242F933F934F9349
:100450005F936F937F938F939F93AF93BF93EF932C
:10046000FF938091770187FF05C01092850010925D
:1004700084001AC020917701332727FD30958091A1
:10048000760190E0281739077CF48091770199274D
:1004900087FD9095FC01EE0FFF1FE80FF91FE8584C
:1004A000FE4F808186FD15C0809177018F5F80931C
:1004B000770120917701332727FD309580917601D0
:1004C00090E028173907BCF4809177018C305CF1FB
:1004D00012C080917701992787FD9095FC01EE0F5E
:1004E000FF1FE80FF91FE858FE4F808160E08F730F
:1004F0000E949705D9CF8091840090918500049641
:1005000080349C4918F480E49CE905C08091840003
:1005100090918500049690938900809388008FEFD6
:100520008093770138C0809184009091850020915C
:100530007701332727FD3095F901EE0FFF1FE20FFA
:10054000F31FE858FE4F21813281820F931F909351
:1005500089008093880080917701992787FD909585
:10056000FC01EE0FFF1FE80FF91FE858FE4F8081D6
:1005700086FF11C080917701992787FD9095FC0136
:10058000EE0FFF1FE80FF91FE858FE4F808161E072
:100590008F730E949705FF91EF91BF91AF919F914B
:1005A0008F917F916F915F914F913F912F910F901C
:1005B0000FBE0F901F901895209176012C30A0F45B
:1005C00031E0320F30937601FC012083822F90E0DE
:1005D000FC01EE0FFF1FE80FF91FE858FE4F88EBF4
:1005E0009BE09283818308952FEFFC01208308957F
:1005F000DF92EF92FF920F931F93CF93DF93EC0163
:10060000D62E7A01890188818C3008F066C061E0BD
:100610008D2D0E945E058881A82FB0E0FD01EE0FB0
:10062000FF1FEA0FFB1FE858FE4F2D2D2F739081FF
:10063000907C922B908360E272E06E197F0977FFC5
:1006400002C06D5F7F4F7595679575956795698356
:1006500040E659E0401B510B57FF02C04D5F5F4F12
:1006600055954795559547954A836CE00E94D80A61
:100670009CE0899FB001112420E030E0A901460FE1
:10068000571FFA01EE0FFF1FE40FF51FE858FE4F4A
:10069000908196FD16C02F5F3F4F2C30310571F7CA
:1006A00081110FC01092800082E08093810010922F
:1006B000850010928400B19A80916F0082608093CF
:1006C0006F00888190E0FC01EE0FFF1FE80FF91F1B
:1006D000E858FE4F8081806480838881DF91CF91CC
:1006E0001F910F91FF90EF90DF900895FC018081A2
:1006F0008C3070F5918128E830E0291B310997FD95
:100700003395220F331F220F331F621773077CF0BC
:10071000928128E532E0291B310997FD3395220F9C
:10072000331F220F331F621773070CF49B014FB75F
:10073000F89490E0FC01EE0FFF1FE80FF91FE85856
:10074000FE4F22503109220F331F328321834FBFC6
:1007500008954F925F926F927F92AF92BF92CF9225
:10076000DF92EF92FF920F931F93CF93DF93EC01F1
:10077000603282E078070CF040C077FD06C0653B30
:1007800071052CF064EB70E002C060E070E08981DC
:1007900028E830E0281B310987FD3395220F331FED
:1007A000220F331F5901CC24B7FCC094DC2C8827BE
:1007B00077FD8095982F2A8148E552E0421B510928
:1007C00027FD5395440F551F440F551F2A016624DA
:1007D00057FC6094762C7F926F925F924F9214EB4D
:1007E000E12EF12C00E010E020E030E0A9010E94B1
:1007F000DA050F900F900F900F90CE01DF91CF91FF
:100800001F910F91FF90EF90DF90CF90BF90AF902E
:100810007F906F905F904F900C9476038F929F9291
:10082000AF92BF92CF92DF92EF92FF920F931F93FE
:10083000CF93DF9390E0FC01E458FF4F0491FC015B
:10084000E057FF4F7491611102C010E001C0102FFA
:10085000DA01C901BF70672F70E0660F771F6C5512
:100860007F4F812C912C5401FB01C591D491E881DB
:10087000E023E11310C0750164012FEFC21AD20A00
:10088000E20AF20A88169906AA06BB0609F441C0D4
:1008900046015701ECCFFB01C591D491E881E023DB
:1008A000E11779F0750164012FEFC21AD20AE20A4A
:1008B000F20A88169906AA06BB0659F146015701A5
:1008C000EDCF88199909AA09BB0920E030E0A901F8
:1008D000FB01C591D4916881602361130AC0281778
:1008E00039074A075B07A9F02F5F3F4F4F4F5F4F14
:1008F000F2CFA5E1B0E00E94BD0A605F7F4F8F4F4D
:100900009F4F24E096958795779567952A95D1F71F
:1009100003C060E070E0CB01DF91CF911F910F9198
:10092000FF90EF90DF90CF90BF90AF909F908F900F
:1009300008951F920F920FB60F9211242F933F9399
:100940008F939F93AF93BF9380919D0190919E0150
:10095000A0919F01B091A00130919C0123E0230F51
:100960002D3720F40196A11DB11D05C026E8230FE7
:100970000296A11DB11D20939C0180939D0190932F
:100980009E01A0939F01B093A0018091A10190913D
:10099000A201A091A301B091A4010196A11DB11DD6
:1009A0008093A1019093A201A093A301B093A4010D
:1009B000BF91AF919F918F913F912F910F900FBE5B
:1009C0000F901F9018952FB7F89460919D0170912A
:1009D0009E0180919F019091A0012FBF08950197E2
:1009E000009739F0880F991F880F991F0297019778
:1009F000F1F70895789484B5826084BD84B58160F0
:100A000084BD85B5826085BD85B5816085BDEEE616
:100A1000F0E0808181608083E1E8F0E010828081F5
:100A200082608083808181608083E0E8F0E0808163
:100A300081608083E1EBF0E0808184608083E0EB83
:100A4000F0E0808181608083EAE7F0E0808184606B
:100A500080838081826080838081816080838081C7
:100A6000806880831092C1000895833081F028F45B
:100A7000813099F08230A1F008958630A9F0873056
:100A8000B9F08430D1F4809180008F7D03C08091D3
:100A900080008F7780938000089584B58F7702C09F
:100AA00084B58F7D84BD08958091B0008F7703C099
:100AB0008091B0008F7D8093B0000895CF93DF9335
:100AC00090E0FC01E458FF4F2491FC01E057FF4FF8
:100AD0008491882349F190E0880F991FFC01E85424
:100AE000FF4FA591B49182559F4FFC01C591D491C0
:100AF0009FB7611108C0F8948C91209582238C9344
:100B0000888182230AC0623051F4F8948C91322F8C
:100B1000309583238C938881822B888304C0F8943A
:100B20008C91822B8C939FBFDF91CF9108950F936F
:100B30001F93CF93DF931F92CDB7DEB7282F30E0FE
:100B4000F901E859FF4F8491F901E458FF4F1491DE
:100B5000F901E057FF4F04910023C9F0882321F0E9
:100B600069830E9435056981E02FF0E0EE0FFF1FD9
:100B7000E255FF4FA591B4919FB7F8948C91611104
:100B800003C01095812301C0812B8C939FBF0F90D0
:100B9000DF91CF911F910F9108950E94FA040E9456
:100BA0008D00C3EFD6E00E94D0002097E1F30E94B1
:100BB000F306F9CF4F925F926F927F92AF92BF92FE
:100BC000CF92DF92EF92FF920F931F93CF93DF9319
:100BD000CDB7DEB729013A01621B730B840B950B6D
:100BE00029893A894B895C892A193B094C095D0995
:100BF000298B3A8B4B8B5C8B9B01AC0169897A8981
:100C00008B899C890E94C80AE418F508060917090F
:100C1000A80197010E94060B2A0D3B1D4C1D5D1D6E
:100C2000CA01B901DF91CF911F910F91FF90EF9011
:100C3000DF90CF90BF90AF907F906F905F904F907C
:100C40000895FC0124853585F901E05CFF4F808122
:100C50009181F901EE5BFF4F20813181821B930B63
:100C60008F7399270895FC0184859585FC01E05CCC
:100C7000FF4F40815181FC01EE5BFF4F20813181AC
:100C80004217530741F00190F081E02DE80FF91F62
:100C9000808190E008958FEF9FEF0895FC01848597
:100CA0009585FC01E05CFF4F40815181FC01EE5BCA
:100CB000FF4F208131814217530779F0A081B18124
:100CC000A80FB91F8C91208131812F5F3F4F2F7367
:100CD00033273183208390E008958FEF9FEF0895AD
:100CE000FC0181A1882329F0A489B5898C9186FF14
:100CF000FBCF11A20895CF93DF93FC0126853785A2
:100D0000D901A05CBF4F8D919C91119701968F7373
:100D10009927E901CE5BDF4F4881598184179507F8
:100D2000D9F30D90BC91A02DA20FB31F6C93A68593
:100D3000B785A05CBF4F11969C938E93A689B78907
:100D40002C9181E090E0078C02C0880F991F0A94D3
:100D5000E2F7282B2C9381E081A30488F589E02D0C
:100D600080818064808381E090E0DF91CF9108955D
:100D700008951F920F920FB60F9211242F933F9355
:100D80004F938F939F93EF93FF938091C00082FDC9
:100D90001CC04091C60080914B0290914C0201967C
:100DA0008F73992720914D0230914E02821793073D
:100DB00071F0E0914B02F0914C02E55FFD4F4083F2
:100DC00090934C0280934B0202C08091C600FF9129
:100DD000EF919F918F914F913F912F910F900FBE67
:100DE0000F901F90189585EA91E00E942106892BAB
:100DF00011F00C94B80608951F920F920FB60F923F
:100E000011242F933F938F939F93EF93FF93209100
:100E10000702309108028091090290910A02281776
:100E2000390731F48091C1008F7D8093C10014C0D7
:100E3000E0910902F0910A02E953FE4F208180916E
:100E4000090290910A0201968F73992790930A02E2
:100E5000809309022093C600FF91EF919F918F919B
:100E60003F912F910F900FBE0F901F901895CF922A
:100E7000DF92EF92FF92CF93DF93EC016A017B0147
:100E8000411581EE580761057105F9F0EC89FD897E
:100E900081E090E008A002C0880F991F0A94E2F751
:100EA000808360E079E08DE390E0A70196010E94E5
:100EB000E40A215031094109510956954795379562
:100EC0002795211580E1380798F0EC89FD8910827B
:100ED00060E874E88EE190E0A70196010E94E40AC0
:100EE0002150310941095109569547953795279564
:100EF000E889F9893083EA89FB89208319A2EE8980
:100F0000FF89408181E090E09C010C8C02C0220F9F
:100F1000331F0A94E2F7422B4083EE89FF89408118
:100F20009C010D8C02C0220F331F0A94E2F7422B62
:100F30004083EE89FF8940819C010E8C02C0220F04
:100F4000331F0A94E2F7422B4083EE89FF89208108
:100F50000F8C02C0880F991F0A94E2F780958223B4
:100F60008083DF91CF91FF90EF90DF90CF90089535
:100F70001092A8011092A70188EE93E0A0E0B0E0E3
:100F80008093A9019093AA01A093AB01B093AC0107
:100F90008CE391E09093A6018093A5018BE092E011
:100FA0009093B2018093B10187EC91E09093B401EA
:100FB0008093B30185EC90E09093B6018093B501E6
:100FC00084EC90E09093B8018093B70180EC90E0BE
:100FD0009093BA018093B90181EC90E09093BC01A9
:100FE0008093BB0182EC90E09093BE018093BD01A1
:100FF00086EC90E09093C0018093BF0184E08093E1
:10100000C10183E08093C20187E08093C30185E042
:101010008093C40181E08093C5010895CF92DF924F
:10102000EF92FF920F931F93CF93DF936C017A019E
:10103000EB01E60EF71E00E010E0CE15DF0561F0D3
:101040006991D601ED91FC910190F081E02DC601EE
:101050000995080F191FF1CFC801DF91CF911F919A
:101060000F91FF90EF90DF90CF900895611571057B
:1010700081F0DB010D900020E9F7AD0141505109ED
:10108000461B570BDC01ED91FC910280F381E02DB2
:10109000099480E090E008950C943608DC01ED910D
:1010A000FC910190F081E02D09940F931F93CF9351
:1010B000DF93EC016DE00E944E088C016AE0CE01E6
:1010C0000E944E08800F911FDF91CF911F910F91C9
:1010D00008958F929F92AF92BF92CF92DF92EF923C
:1010E000FF920F931F93CF93DF93CDB7DEB7A197F6
:1010F0000FB6F894DEBF0FBECDBF7C01C42EE52F26
:10110000CB01D22E19A221E02D1510F02AE0D22E0B
:101110008E010F5D1F4F8D2C912CA12CB12C6C2DAD
:101120007E2FA50194010E94E40A8C2DD29E801985
:101130001124015011098A3014F4805D01C0895CCA
:10114000F8018083211531054105510521F0C22E9A
:10115000E32FCA01E4CFB801C7010E943608A19667
:101160000FB6F894DEBF0FBECDBFDF91CF911F91B8
:101170000F91FF90EF90DF90CF90BF90AF909F9036
:101180008F900895CF92DF92EF92FF920F931F936B
:10119000CF93DF93EC016A017B012115310579F4CE
:1011A000E881F9810190F081E02D642FDF91CF91EA
:1011B0001F910F91FF90EF90DF90CF9009942A300C
:1011C0003105E9F477FF1AC06DE20E944E088C01E8
:1011D00044275527BA014C195D096E097F092AE099
:1011E000CE010E946908800F911FDF91CF911F915E
:1011F0000F91FF90EF90DF90CF9008952AE0B70114
:10120000A601CE01DF91CF911F910F91FF90EF903A
:10121000DF90CF900C9469080F931F93CF93DF93C7
:10122000EC019A01AB01662757FD6095762F0E946D
:10123000C2088C01CE010E945508800F911FDF91DA
:10124000CF911F910F9108950F931F93CF93DF9329
:10125000EC010E94C2088C01CE010E945508800F4B
:10126000911FDF91CF911F910F9108955058BB2787
:10127000AA270ED0E5C0D6D030F0DBD020F031F474
:101280009F3F11F41EF4CBC00EF4E095E7FBC1C004
:10129000E92FE7D080F3BA17620773078407950731
:1012A00018F071F49EF5FFC00EF4E0950B2EBA2FE6
:1012B000A02D0B01B90190010C01CA01A00111245C
:1012C000FF27591B99F0593F50F4503E68F11A1608
:1012D000F040A22F232F342F4427585FF3CF469599
:1012E00037952795A795F0405395C9F77EF41F16BB
:1012F000BA0B620B730B840BBAF09150A1F0FF0F85
:10130000BB1F661F771F881FC2F70EC0BA0F621F70
:10131000731F841F48F4879577956795B795F79560
:101320009E3F08F0B3CF9395880F08F09927EE0FF2
:1013300097958795089504D06894B111B5C0089524
:1013400098D088F09F5790F0B92F9927B751A0F007
:10135000D1F0660F771F881F991F1AF0BA95C9F749
:1013600012C0B13081F09FD0B1E008959CC0672FCA
:10137000782F8827B85F39F0B93FCCF386957795F9
:101380006795B395D9F73EF49095809570956195E2
:101390007F4F8F4F9F4F0895E89409C097FB3EF40D
:1013A00090958095709561957F4F8F4F9F4F9923B2
:1013B000A9F0F92F96E9BB279395F6958795779530
:1013C0006795B795F111F8CFFAF4BB0F11F460FFF0
:1013D0001BC06F5F7F4F8F4F9F4F16C0882311F048
:1013E00096E911C0772321F09EE8872F762F05C05C
:1013F000662371F096E8862F70E060E02AF09A95F7
:10140000660F771F881FDAF7880F9695879597F9EB
:10141000089597F99F6780E870E060E008959FEF76
:1014200080EC089500240A9416161706180609067B
:10143000089500240A94121613061406050608954A
:10144000092E0394000C11F4882352F0BB0F40F4D2
:10145000BF2B11F460FF04C06F5F7F4F8F4F9F4F12
:10146000089557FD9058440F551F59F05F3F71F094
:101470004795880F97FB991F61F09F3F79F08795FB
:101480000895121613061406551FF2CF4695F1DF84
:1014900008C0161617061806991FF1CF8695710514
:1014A000610508940895E894BB2766277727CB0148
:1014B00097F908950BD0C4CFB5DF28F0BADF18F044
:1014C000952309F0A6CFABCF1124EECFCADFA0F34E
:1014D000959FD1F3950F50E0551F629FF001729FC9
:1014E000BB27F00DB11D639FAA27F00DB11DAA1FE8
:1014F000649F6627B00DA11D661F829F2227B00D35
:10150000A11D621F739FB00DA11D621F839FA00DBF
:10151000611D221F749F3327A00D611D231F849F0F
:10152000600D211D822F762F6A2F11249F57504066
:101530008AF0E1F088234AF0EE0FFF1FBB1F661F01
:10154000771F881F91505040A9F79E3F510570F0BA
:1015500060CFAACF5F3FECF3983EDCF3869577959A
:101560006795B795F795E7959F5FC1F7FE2B880FB5
:10157000911D9695879597F908950E94250BA59F33
:10158000900DB49F900DA49F800D911D112408957E
:10159000DB018F939F930E94BD0ABF91AF91A29FE1
:1015A000800D911DA39F900DB29F900D1124089561
:1015B000991B79E004C0991F961708F0961B881FA5
:1015C0007A95C9F780950895A1E21A2EAA1BBB1B34
:1015D000FD010DC0AA1FBB1FEE1FFF1FA217B307FF
:1015E000E407F50720F0A21BB30BE40BF50B661F15
:1015F000771F881F991F1A9469F7609570958095D9
:1016000090959B01AC01BD01CF010895052E97FB7C
:101610001EF400940E941D0B57FD07D00E94E40A9F
:1016200007FC03D04EF40C941D0B5095409530955B
:1016300021953F4F4F4F5F4F08959095809570953E
:1016400061957F4F8F4F9F4F0895A29FB001B39F29
:10165000C001A39F700D811D1124911DB29F700DBB
:10166000811D1124911D0895EE0FFF1F0590F49127
:08167000E02D0994F894FFCF6E
:101678000100000064656C5F643A20006465725F75
:10168800643A2000696E745F643A200064656C5F98
:10169800733A2000736572766F5F6C3A2000736549
:1016A80072766F5F723A2000000000007B060E0819
:0816B80021064E063306700600
:00000001FF
